:100000000C946E000C9496000C9496000C94960040
:100010000C9496000C9496000C9496000C94960008
:100020000C9496000C9496000C9496000C949600F8
:100030000C9496000C9496000C9496000C949600E8
:100040000C9458060C9496000C943D040C946F0488
:100050000C9496000C9496000C9496000C949600C8
:100060000C9496000C949600CB01D501E101E501BA
:10007000E901ED01F101F5011002100207020B0286
:100080000000000800020100000304070000000057
:100090000000000001020408102040800102040852
:1000A00010200102040810200404040404040404C1
:1000B0000202020202020303030303030000000022
:1000C00023002600290000000000250028002B0046
:1000D00000000000240027002A009F0411241FBEF6
:1000E000CFEFD8E0DEBFCDBF11E0A0E0B1E0E2E4A9
:1000F000F2E102C005900D92AC31B107D9F721E0D1
:10010000ACE1B1E001C01D92AB3CB207E1F710E0F9
:10011000CCEDD0E004C02297FE010E949C08CA3DAD
:10012000D107C9F70E9449060C941F090C940000DE
:1001300061E089E00E94B00761E088E00E94B007BA
:1001400061E08BE00E94B00761E08AE00E94B007A6
:1001500026E040E052EC61E070E085E291E00E9430
:10016000DB0360E08EE00E94B00760E08FE00E9459
:10017000B00760E080E10E94B00760E081E10C948C
:10018000B0072CE231E040E050E064ED7EEF8FEF0D
:100190009FEF0E94E505CB0108950F931F93CF9326
:1001A000DF938C01EB0197FF04C001501F4F61E00A
:1001B00001C060E088E00E94E907B80189E00E9480
:1001C0002807D7FF04C0C150DF4F61E001C060E0E5
:1001D0008AE00E94E907BE018BE0DF91CF911F9179
:1001E0000F910C9428076F927F928F929F92AF92FB
:1001F000BF92CF92DF92EF92FF920F931F93CF9314
:10020000DF933B01BC01882777FD8095982F1F92D3
:100210001F921F9288248A948F92AA24A394BB24AD
:10022000BA94CB2CDB2C14E6E12EF12C00E010E08C
:100230002CE93FEF4FEF5FEF0E940106962EC62F8D
:10024000D72FB301882777FD8095982F1F921F9293
:100250001F928F922CE93FEF4FEF5FEF0E94010654
:100260009B014DB75EB7485F5F4F0FB6F8945EBF16
:100270000FBE4DBF77FF04C021503F4F11E001C0BA
:1002800010E0D7FF41C0C150DF4FDC2FD21BC20F9F
:100290004AE050E06D2F85E291E00E94A3056AE0FC
:1002A00071E085E291E00E9420054AE050E06C2F69
:1002B00085E291E00E94AA05111106C061E088E084
:1002C0000E94E90761E005C060E088E00E94E9075C
:1002D00060E08AE00E94E9076D2F70E089E00E94EB
:1002E00028076C2F70E08BE0DF91CF911F910F9169
:1002F000FF90EF90DF90CF90BF90AF909F908F9046
:100300007F906F900C942807D92DD20FC92DC21B56
:10031000BFCFFC01218130E020533109B4E6B29F08
:10032000C001B39F900D1124228130E02053310988
:10033000AAE0A29FA001A39F500D1124840F951F36
:100340002381820F911D248130E020533109B29F17
:10035000B001B39F700D1124258130E02053310985
:10036000A29FA001A39F500D1124640F751F268129
:10037000620F711D685F7109885F91090C94F30029
:10038000815491098C30910508F04AC08C5C9F4FD4
:10039000FC010C949A0880911C01816080931C01DF
:1003A0001092050110920401089580911C018E7332
:1003B00080931C0181E090E09093050180930401FB
:1003C000089580911C01826029C080911C018D7369
:1003D00025C080911C01846021C080911C018B7319
:1003E0001DC080911C01886019C080911C01877319
:1003F00080931C018EEE92E0A0E0B0E080930601B5
:1004000090930701A0930801B0930901089580918A
:100410001C01806203C080911C018F7180931C01BC
:1004200008950F931F93CF93DF9385E291E00E948D
:10043000F802892B09F44AC062E070E080E090E0A5
:100440000E94C50685E291E00E94110380931D0180
:100450008230E1F50EE111E0C1E0D0E085E291E00B
:100460000E94F802892B79F061E070E080E090E072
:100470000E94C50685E291E00E941103F801819374
:100480008F0187FF04C0C230D105A1F408C0C83075
:10049000D10581F0833061F4C230D10531F480910F
:1004A0001E0190E00E94C00111C0C730D10511F0BB
:1004B0002196D4CF279751F48091040190910501A2
:1004C000892B21F48DE191E00E9489018091040142
:1004D00090910501019709F086C08EE00E941F08E7
:1004E0000197C9F468E37FEF88E39FEF0E94CD0096
:1004F0006CE271E080E090E00E94C5060E94C100BD
:10050000BC0188EC90E00E94CD006CE271E080E0DC
:1005100090E00E94C5068FE00E941F080197C9F471
:1005200068E37FEF88E39FEF0E94CD006CE271E00B
:1005300080E090E00E94C5060E94C100BC0188ECEA
:1005400090E00E94CD006CE271E080E090E00E94BB
:10055000C50680E10E941F080197C1F468E37FEFA0
:1005600088E39FEF0E94CD006CE271E080E090E0B4
:100570000E94C5060E94C10068EC70E00E94CD0098
:100580006CE271E080E090E00E94C50681E10E948B
:100590001F080197C1F468EC70E088EC90E00E94BD
:1005A000CD006CE271E080E090E00E94C5060E9400
:1005B000C10068EC70E00E94CD006CE271E080E068
:1005C00090E00E94C50668EC70E088EC90E00E9424
:1005D000CD006AE070E080E090E0DF91CF911F9164
:1005E0000F910C94C506DF91CF911F910F91089543
:1005F000FC01818D228D90E0805C9F4F821B9109D0
:100600008F7399270895FC01918D828D981731F091
:10061000828DE80FF11D858D90E008958FEF9FEF9B
:100620000895FC01918D828D981761F0828DDF0114
:10063000A80FB11D5D968C91928D9F5F9F73928FD5
:1006400090E008958FEF9FEF089585E994E0892B5E
:1006500049F080E090E0892B29F00E9495048111F7
:100660000C9400000895FC01848DDF01A80FB11DDA
:10067000A35ABF4F2C91848D90E001968F739927D8
:10068000848FA689B7892C93A089B1898C918064C5
:100690008C93938D848D981306C00288F389E02D86
:1006A00080818F7D80830895CF93DF93EC01888DC7
:1006B0008823C9F0EA89FB89808185FD05C0A88966
:1006C000B9898C9186FD0FC00FB607FCF5CF8081EC
:1006D00085FFF2CFA889B9898C9185FFEDCFCE0136
:1006E0000E943303E7CFDF91CF910895CF92DF923D
:1006F000FF920F931F93CF93DF931F92CDB7DEB777
:100700006C01DC015B969C915B975C968C915C978D
:10071000981307C05096ED91FC915197808185FD0B
:1007200032C0F601038D10E00F5F1F4F0F731127CA
:10073000F02EF601848DF81211C00FB607FCF9CF28
:10074000D6015096ED91FC915197808185FFF1CFB4
:10075000C60169830E9433036981EBCF838DE80F63
:10076000F11DE35AFF4F6083D6015B960C935B97B4
:100770005296ED91FC91539780818062808381E055
:1007800058968C930DC0D6015696ED91FC915797D3
:1007900060835096ED91FC915197808180648083B5
:1007A00081E090E00F90DF91CF911F910F91FF902A
:1007B000DF90CF900895BF92CF92DF92EF92FF9299
:1007C000CF93DF93EC016A017B01B22EE889F989AE
:1007D00082E08083411581EE580761057105A1F023
:1007E00060E079E08DE390E0A70196010E9459084E
:1007F000215031094109510956954795379527955B
:10080000211580E1380798F0E889F989108260E8BD
:1008100074E88EE190E0A70196010E9459082150EA
:100820003109410951095695479537952795EC852A
:10083000FD853083EE85FF852083188EEC89FD8948
:10084000B082EA89FB89808180618083EA89FB89A3
:10085000808188608083EA89FB89808180688083C9
:10086000EA89FB8980818F7D8083DF91CF91FF9022
:10087000EF90DF90CF90BF9008951F920F920FB628
:100880000F9211242F938F939F93EF93FF93E091F7
:100890003501F09136018081E0913B01F0913C01FE
:1008A00082FD12C0908180913E018F5F8F732091F5
:1008B0003F01821751F0E0913E01F0E0EB5DFE4F09
:1008C000958F80933E0101C08081FF91EF919F91B0
:1008D0008F912F910F900FBE0F901F9018951F9220
:1008E0000F920FB60F9211242F933F934F935F9364
:1008F0006F937F938F939F93AF93BF93EF93FF93E8
:1009000085E291E00E943303FF91EF91BF91AF9197
:100910009F918F917F916F915F914F913F912F9117
:100920000F900FBE0F901F90189585E291E00E94E6
:10093000F80221E0892B09F420E0822F089510921B
:1009400028011092270188EE93E0A0E0B0E08093A8
:10095000290190932A01A0932B01B0932C0180E1EF
:1009600091E0909326018093250185EC90E090938F
:1009700032018093310184EC90E0909334018093B4
:10098000330180EC90E0909336018093350181EC47
:1009900090E0909338018093370182EC90E090933F
:1009A0003A018093390186EC90E090933C0180936A
:1009B0003B0110923E0110923F01109240011092B3
:1009C00041010895CF92DF92EF92FF920F931F9310
:1009D000CF93DF936C017A01EB01E60EF71E00E086
:1009E00010E0CE15DF0561F06991D601ED91FC9123
:1009F0000190F081E02DC6010995080F191FF1CF74
:100A0000C801DF91CF911F910F91FF90EF90DF9080
:100A1000CF9008956115710581F0DB010D900020E4
:100A2000E9F7AD0141505109461B570BDC01ED912F
:100A3000FC910280F381E02D099480E090E008951C
:100A40000C940A05DC01ED91FC910190F081E02D00
:100A500009940F931F93CF93DF93EC016DE00E94F5
:100A600022058C016AE0CE010E942205800F911FB1
:100A7000DF91CF911F910F9108958F929F92AF9226
:100A8000BF92CF92DF92EF92FF920F931F93CF937B
:100A9000DF93CDB7DEB7A1970FB6F894DEBF0FBED8
:100AA000CDBF7C01C42EE52FCB01D22E19A221E0AF
:100AB0002D1510F02AE0D22E8E010F5D1F4F8D2CC8
:100AC000912CA12CB12C6C2D7E2FA50194010E949C
:100AD00059088C2DD29E80191124015011098A3099
:100AE00014F4805D01C0895CF80180832115310513
:100AF0004105510521F0C22EE32FCA01E4CFB80110
:100B0000C7010E940A05A1960FB6F894DEBF0FBE7A
:100B1000CDBFDF91CF911F910F91FF90EF90DF90AC
:100B2000CF90BF90AF909F908F9008952115310581
:100B300041F4DC01ED91FC910190F081E02D642FF6
:100B400009940C943D059A01462F50E060E070E056
:100B50000C9496050F931F93CF93DF93EC019A01AA
:100B6000462F50E060E070E00E9496058C01CE01B7
:100B70000E942905800F911FDF91CF911F910F9146
:100B80000895CF93DF9300D000D0CDB7DEB79B019F
:100B9000AC01611571058105910569F069833A839E
:100BA0004B835C830E94090929813A814B815C81D6
:100BB0000E947B0803C060E070E0CB010F900F90B3
:100BC0000F900F90DF91CF910895CF92DF92EF9227
:100BD000FF926B017C01621773078407950764F429
:100BE000CA01B9016C197D098E099F090E94C105CE
:100BF0006C0D7D1D8E1D9F1DFF90EF90DF90CF909F
:100C000008954F925F926F927F92AF92BF92CF9270
:100C1000DF92EF92FF920F931F93CF93DF93CDB7A5
:100C2000DEB729013A01621B730B840B950B2989EE
:100C30003A894B895C892A193B094C095D09298B42
:100C40003A8B4B8B5C8B9B01AC0169897A898B89D0
:100C50009C890E944908E418F50806091709A801AB
:100C600097010E947B082A0D3B1D4C1D5D1DCA018A
:100C7000B901DF91CF911F910F91FF90EF90DF901D
:100C8000CF90BF90AF907F906F905F904F900895FE
:100C900008950E94ED060E9448060E949800C5E251
:100CA000D3E00E9411022097E1F30E942503F9CFBF
:100CB0001F920F920FB60F9211242F933F938F9391
:100CC0009F93AF93BF938091C3019091C401A09172
:100CD000C501B091C6013091C20123E0230F2D3729
:100CE00020F40196A11DB11D05C026E8230F029630
:100CF000A11DB11D2093C2018093C3019093C40133
:100D0000A093C501B093C6018091C7019091C8011D
:100D1000A091C901B091CA010196A11DB11D809396
:100D2000C7019093C801A093C901B093CA01BF91B4
:100D3000AF919F918F913F912F910F900FBE0F9088
:100D40001F9018953FB7F8948091C7019091C80102
:100D5000A091C901B091CA0126B5A89B05C02F3F3B
:100D600019F00196A11DB11D3FBF6627782F892F6D
:100D70009A2F620F711D811D911D42E0660F771F32
:100D8000881F991F4A95D1F70895CF92DF92EF926D
:100D9000FF92CF93DF936B017C010E94A206EB01CF
:100DA000C114D104E104F10489F00E9448080E94B2
:100DB000A2066C1B7D0B683E734090F381E0C81A5D
:100DC000D108E108F108C851DC4FEACFDF91CF919B
:100DD000FF90EF90DF90CF900895789484B5826073
:100DE00084BD84B5816084BD85B5826085BD85B5CF
:100DF000816085BDEEE6F0E0808181608083E1E87E
:100E0000F0E01082808182608083808181608083B5
:100E1000E0E8F0E0808181608083E1EBF0E08081B8
:100E200084608083E0EBF0E0808181608083EAE78A
:100E3000F0E0808184608083808182608083808113
:100E4000816080838081806880831092C1000895D2
:100E50001F93CF93DF93182FEB0161E00E94B0073F
:100E6000209711F460E004C0CF3FD10539F461E070
:100E7000812FDF91CF911F910C94E907E12FF0E0D2
:100E8000E058FF4FE491E330F9F048F4E130B9F075
:100E9000E230A1F584B5806284BDC8BD34C0E730BE
:100EA000E9F0E83019F1E43049F580918000806282
:100EB00080938000D0938B00C0938A0024C084B5B7
:100EC000806884BDC7BD1FC080918000806880930A
:100ED0008000D0938900C093880015C08091B00035
:100EE00080688093B000C093B3000DC08091B000C3
:100EF00080628093B000C093B40005C0C038D105B3
:100F00000CF0B5CFAFCFDF91CF911F910895833013
:100F100081F028F4813099F08230A1F00895873073
:100F2000A9F08830B9F08430D1F4809180008F7DB1
:100F300003C0809180008F7780938000089584B5EE
:100F40008F7702C084B58F7D84BD08958091B000F5
:100F50008F7703C08091B0008F7D8093B00008959B
:100F6000CF93DF9390E0FC01EC56FF4F2491FC01FE
:100F7000E855FF4F8491882349F190E0880F991F2D
:100F8000FC01E053FF4FA591B4918A539F4FFC01A0
:100F9000C591D4919FB7611108C0F8948C912095A8
:100FA00082238C93888182230AC0623051F4F894A2
:100FB0008C91322F309583238C938881822B888368
:100FC00004C0F8948C91822B8C939FBFDF91CF91BA
:100FD00008950F931F93CF93DF931F92CDB7DEB782
:100FE000282F30E0F901E058FF4F8491F901EC56C9
:100FF000FF4F1491F901E855FF4F04910023C9F008
:10100000882321F069830E9487076981E02FF0E03F
:10101000EE0FFF1FEA53FF4FA591B4919FB7F894CD
:101020008C91611103C01095812301C0812B8C9399
:101030009FBF0F90DF91CF911F910F910895CF9394
:10104000DF93282F30E0F901E058FF4F8491F90138
:10105000EC56FF4FD491F901E855FF4FC491CC23D2
:1010600091F081110E948707EC2FF0E0EE0FFF1F37
:10107000E454FF4FA591B4912C912D2381E090E091
:1010800021F480E002C080E090E0DF91CF910895EC
:101090000895DB018F939F930E94A008BF91AF91A9
:1010A000A29F800D911DA39F900DB29F900D1124C2
:1010B0000895A1E21A2EAA1BBB1BFD010DC0AA1F99
:1010C000BB1FEE1FFF1FA217B307E407F50720F0B1
:1010D000A21BB30BE40BF50B661F771F881F991F2C
:1010E0001A9469F760957095809590959B01AC0175
:1010F000BD01CF010895052E97FB1EF400940E94B8
:10110000920857FD07D00E94590807FC03D04EF4FF
:101110000C94920850954095309521953F4F4F4F34
:101120005F4F089590958095709561957F4F8F4F93
:101130009F4F0895EE0FFF1F0590F491E02D099445
:101140000E94AB08A59F900DB49F900DA49F800DA9
:10115000911D11240895A29FB001B39FC001A39FC8
:10116000700D811D1124911DB29F700D811D1124E0
:10117000911D08958F929F92AF92BF92CF92DF926E
:10118000EF92FF92CF93DF93EC01688179818A819E
:101190009B81611571058105910521F464E279ED6A
:1011A0008BE597E02DE133EF41E050E00E947B08B2
:1011B00049015A019B01AC01A7EAB1E40E94A008D1
:1011C0006B017C01ACEEB4EFA50194010E941A09F9
:1011D000C60ED71EE81EF91EF7FE06C081E0C81A2B
:1011E000D108E10880E8F80AC882D982EA82FB8245
:1011F000C701B6019F77DF91CF91FF90EF90DF900D
:10120000CF90BF90AF909F908F9008950E94BA08A2
:10121000089580E091E00E94BA080895609300016B
:101220007093010180930201909303010895B7FF29
:101230000C94A0080E94A008821B930B0895F894B8
:02124000FFCFDE
:10124200010000000100EE0200002000000000008A
:0C1252007603E204F802110303035403C6
:00000001FF
